S00D000074657374312E7372656326
S11300000C943D010C945A010C945A010C945A011D
S11300100C945A010C945A010C945A010C945A01F0
S11300200C945A010C945A010C945A010C945A01E0
S11300300C945A010C945A010C945A010C945A01D0
S11300400C945A010C945A010C945A010C945A01C0
S11300500C945A010C945A010C945A010C945A01B0
S11300600C945A010C945A0100000000008181187C
S113007081810007000700147F147F14242A7F2A3B
S11300801223130864623649552250000503000008
S1130090001C2241000041221C0014083E081408E0
S11300A0083E0808005030000008080808080060EE
S11300B060000020100804023E5149453E00427F82
S11300C0400042615149462141454B311814127F89
S11300D01027454545393C4A494930017109050312
S11300E03649494936064949291E0036360000007A
S11300F0563600000814224100141414141400414C
S11301002214080201510906324979413E7E111137
S1130110117E7F494949363E414141227F41412276
S11301201C7F494949417F090909013E4149497AEE
S11301307F0808087F00417F41002040413F017F44
S1130140081422417F404040407F020C027F7F041C
S113015008107F3E4141413E7F090909063E415155
S1130160215E7F09192946464949493101017F0128
S1130170013F4040403F1F2040201F3F4038403F48
S11301806314081463070870080761514945430064
S11301907F41410002040810200041417F00040215
S11301A00102044040404040000102040020545435
S11301B054787F48444438384444442038444448BC
S11301C07F3854545418087E0901020C5252523E8E
S11301D07F0804047800447D40002040443D007FB3
S11301E01028440000417F40007C041804787C08F7
S11301F004047838444444387C141414080814144F
S1130200147C7C080404084854545420043F44409B
S1130210203C4040207C1C2040201C3C4030403C82
S113022044281028440C5050503C4464544C44001E
S11302300836410000007F00000041360800100825
S113024008100800000000001200AE01A83F0120C1
S1130250000221007F02220007004001D30000A118
S113026000C801DA1201817F00A400A601D5800133
S1130270D9C201DB20018D1400AF11241FBECFEFC2
S1130280D8E0DEBFCDBF11E0A0E0B1E0E8EAFAE0DB
S113029002C005900D92A23FB107D9F726E0A2EF64
S11302A0B1E001C01D92A435B207E1F70E944E04EB
S11302B00C9452050C940000CF93C82F0E946C023A
S11302C0811103C08C2F0E948A02CF910895CF938D
S11302D0C82F80E80E949F02811103C08C2F0E94C6
S11302E09F02CF910895CF92DF92EF92FF920F93E6
S11302F01F93CF93DF93C82FE8E4F2E0E491EE2E4E
S1130300F12C0E9460028C2F0E945C01811126C096
S1130310C9E4D2E01DC0FE01149131968491229665
S11303200E946701882369F019C06E01FFEFCF1A9C
S1130330DF0AFE0184910E946701102F81110EC013
S1130340E6010FEF010F1111F0CFF1E0EF1AF10800
S1130350E114F10401F70E94B30280E0DF91CF9130
S11303601F910F91FF90EF90DF90CF900895CF935E
S1130370DF930E945C01811118C080E40E949F02F7
S1130380811113C0C0E0D0E009C0FE01EE50FE4F61
S113039080810E949F02811108C02196C11584E0CA
S11303A0D80798F30E94B30280E0DF91CF910895BB
S11303B080E094E0E2EFF1E0DF019C011D92215026
S11303C03040E1F7089590E020E8629F800D911D90
S11303D011249093F7058093F60508958091F6050E
S11303E09091F7059C01220F232F221F330B319587
S11303F0922F979599279795891B8A5F7AF42830CD
S113040078F4263078F42F5F80E8289F9001112437
S11304103093F7052093F60580E0089580E0089571
S113042081E0089580E00895CF93C82F0E94EE01E3
S1130430813071F140E020C02091F6053091F7053C
S1130440C90101969093F7058093F6058C2F90E0EF
S1130450809751E0540FFC01EE0FFF1FEE0FFF1FBA
S1130460E80FF91FE40FF11DE859FF4FE491D9019A
S1130470AE50BE4FEC93452F4530F0F28091F60517
S11304809091F70501969093F7058093F60580E027
S1130490CF9108950F931F93CF93DF938C01C0E006
S11304A0D0E003C021960E941402F801EC0FFD1F56
S11304B080818111F7CFDF91CF911F910F91089522
S11304C083E08093B800E9EBF0E080819081827052
S11304D08160892B80830895E9EBF0E08081877542
S11304E0808384EA8093BC008091BC008823E4F775
S11304F08091B900887F883049F08091B900887F65
S1130500803131F08091B900887F089580E00895AA
S113051080E00895880F8093BB0084E88093BC003A
S11305208091BC008823E4F78091B900887F8831EA
S113053021F08091B900887F089580E00895809328
S1130540BB0084E88093BC008091BC008823E4F75E
S11305508091B900887F883221F08091B900887F2A
S1130560089580E0089584E98093BC000895809103
S11305700001909101018230910551F18330910580
S113058009F449C0019709F068C00E94D80161E0EC
S113059087E00E94E30183E091E00E944A0288EF31
S11305A095E00E944A0262E087E00E94E30186E14E
S11305B096E00E944A0263E087E00E94E30184E33C
S11305C096E00E944A02809102010E94B7010895B8
S11305D00E94D80161E087E00E94E30188EF95E082
S11305E00E944A0262E087E00E94E30183E091E016
S11305F00E944A0286E196E00E944A0263E087E094
S11306000E94E30184E396E00E944A028091020181
S11306100E94B70108950E94D80161E087E00E941A
S1130620E30188EF95E00E944A0262E087E00E94BD
S1130630E30186E196E00E944A0263E087E00E94BB
S1130640E30183E091E00E944A0284E396E00E9481
S11306504A02809102010E94B701089582309105F7
S1130660B1F18330910509F461C0019709F08CC0A0
S11306700E94D80161E087E00E94E30186E091E0F6
S11306800E944A0262E087E00E94E30180E191E077
S11306900E944A0282E096E00E944A0282E291E0CD
S11306A00E944A0263E087E00E94E30186E291E04F
S11306B00E944A028CE096E00E944A0288E391E09C
S11306C00E944A02809102010E94B70108950E948B
S11306D0D80161E087E00E94E30186E091E00E9496
S11306E04A0262E087E00E94E3018CE391E00E9409
S11306F04A0280E296E00E944A0282E291E00E946D
S11307004A0263E087E00E94E3018FE491E00E94E3
S11307104A028AE296E00E944A0288E391E00E943B
S11307204A02809102010E94B70108950E94D801F3
S113073061E087E00E94E30186E091E00E944A02C2
S113074062E087E00E94E30180E191E00E944A02B6
S11307508EE396E00E944A0282E291E00E944A02FD
S113076063E087E00E94E30186E291E00E944A028E
S113077088E496E00E944A0288E391E00E944A02DB
S1130780809102010E94B70108958230910531F1F0
S11307908330910509F441C0019709F05CC00E94BF
S11307A0D80161E087E00E94E30182E691E00E94C3
S11307B04A0262E087E00E94E3018EE691E00E9433
S11307C04A0263E087E00E94E30180E891E00E942E
S11307D04A02809102010E94B70108950E94D80143
S11307E061E087E00E94E30182E691E00E944A0210
S11307F062E087E00E94E30182E991E00E944A02FC
S113080063E087E00E94E30184EA91E00E944A02E7
S1130810809102010E94B70108950E94D80161E00D
S113082087E00E94E30182E691E00E944A0262E0CE
S113083087E00E94E30186EB91E00E944A0263E0B4
S113084087E00E94E30188EC91E00E944A028091D3
S113085002010E94B7010895CF93DF93C0E0D0E076
S113086017C02EE12C9FC0012D9F900D11244EE145
S113087050E0BC0188509A4F0E9442052FE38DE05E
S113088093E0215080409040E1F700C000002196A1
S1130890C330D10534F3DF91CF91089588EF95E00B
S11308A00E942C041AB8809102010E947301809165
S11308B00001909101010E94B70288EF95E00E9427
S11308C04A0262E087E00E94E30186E196E00E942A
S11308D04A0263E087E00E94E30183E091E00E9422
S11308E04A0284E396E00E944A02809102010E9437
S11308F0B7014D9B1BC08091000190910101823092
S113090091052CF00197909301018093000180914F
S11309100001909101010E94B7022FEF84E39CE053
S1130920215080409040E1F700C000004C9B1BC068
S11309308091000190910101833091052CF401967E
S11309409093010180930001809100019091010135
S11309500E94B7022FEF84E39CE021508040904036
S1130960E1F700C000004A9B6CC0809100019091A7
S113097001019C012150310923303105B0F49093D9
S1130980F5058093F4050E942E0385E090E0909392
S11309900101809300012FEF84E39CE0215080400B
S11309A09040E1F700C000004CC08091F4059091A4
S11309B0F5059C012150310923303105F8F4909359
S11309C0F3058093F2050E94C5032FEF84E39CE0B6
S11309D0215080409040E1F700C0000085E090E0A5
S11309E09093F5058093F4052FEF84E39CE0215068
S11309F080409040E1F700C0000023C08091F205E0
S1130A009091F3059C012150310923303105C8F43C
S1130A1090930101809300010E94B7022FEF84E3B9
S1130A209CE0215080409040E1F700C0000085E048
S1130A3090E09093F3058093F2051092F5051092DF
S1130A40F4054B9B56CF8091F4059091F5050497DE
S1130A503CF0809100019091010104970CF049CF82
S1130A6081E090E090930101809300010E94B7021D
S1130A702FEF84E39CE0215080409040E1F700C0D8
S1130A80000037CFDC01CB01FC01F999FECF06C091
S1130A90F2BDE1BDF89A319600B40D924150504038
S10B0AA0B8F70895F894FFCFA4
S1130AA801003C3E3E003E3E436F6E6669726D0037
S1130AB8566F6C74616765206C6576656C202D3E95
S1130AC820002056200043757272656E74206C6590
S1130AD876656C202D3E200020412000566F6C74F2
S1130AE8616765206C6576656C202D3E2020004387
S1130AF8757272656E74206C6576656C202D3E2067
S1130B0820003E3E4D61696E204D656E7500524C65
S1130B185420566F6C2E202D3E20352E3156200041
S1130B28524C54204375722E202D3E20322E3341D0
S1130B382000524C5420566F6C2E202D3E20352E0A
S1130B4830562000524C54204375722E202D3E20DE
S1130B58322E30412000524C5420566F6C2E202DDA
S1130B683E20332E30562000524C54204375722EAA
S1130B78202D3E20302E393641200025692E256946
S1130B88256920410043555252454E5420202D20BA
S1050B98200037
S9030000FC
